{
  "abi": [
    {
      "inputs": [
        {
          "internalType": "contract INonfungiblePositionManager",
          "name": "_nonfungiblePositionManager",
          "type": "address"
        }
      ],
      "stateMutability": "nonpayable",
      "type": "constructor"
    },
    {
      "inputs": [],
      "name": "closeposition",
      "outputs": [
        {
          "internalType": "enum LiquidityExamples.AllowToClosePosition",
          "name": "",
          "type": "uint8"
        }
      ],
      "stateMutability": "view",
      "type": "function"
    },
    {
      "inputs": [
        {
          "internalType": "uint256",
          "name": "tokenId",
          "type": "uint256"
        }
      ],
      "name": "collectAllFees",
      "outputs": [
        {
          "internalType": "uint256",
          "name": "amount0",
          "type": "uint256"
        },
        {
          "internalType": "uint256",
          "name": "amount1",
          "type": "uint256"
        }
      ],
      "stateMutability": "nonpayable",
      "type": "function"
    },
    {
      "inputs": [
        {
          "internalType": "uint256",
          "name": "",
          "type": "uint256"
        }
      ],
      "name": "deposits",
      "outputs": [
        {
          "internalType": "address",
          "name": "owner",
          "type": "address"
        },
        {
          "internalType": "uint128",
          "name": "liquidity",
          "type": "uint128"
        },
        {
          "internalType": "address",
          "name": "token0",
          "type": "address"
        },
        {
          "internalType": "address",
          "name": "token1",
          "type": "address"
        }
      ],
      "stateMutability": "view",
      "type": "function"
    },
    {
      "inputs": [],
      "name": "nonfungiblePositionManager",
      "outputs": [
        {
          "internalType": "contract INonfungiblePositionManager",
          "name": "",
          "type": "address"
        }
      ],
      "stateMutability": "view",
      "type": "function"
    },
    {
      "inputs": [
        {
          "internalType": "address",
          "name": "operator",
          "type": "address"
        },
        {
          "internalType": "address",
          "name": "",
          "type": "address"
        },
        {
          "internalType": "uint256",
          "name": "tokenId",
          "type": "uint256"
        },
        {
          "internalType": "bytes",
          "name": "",
          "type": "bytes"
        }
      ],
      "name": "onERC721Received",
      "outputs": [
        {
          "internalType": "bytes4",
          "name": "",
          "type": "bytes4"
        }
      ],
      "stateMutability": "nonpayable",
      "type": "function"
    },
    {
      "inputs": [],
      "name": "position",
      "outputs": [
        {
          "internalType": "enum LiquidityExamples.Position",
          "name": "",
          "type": "uint8"
        }
      ],
      "stateMutability": "view",
      "type": "function"
    },
    {
      "inputs": [
        {
          "internalType": "bool",
          "name": "_putOrCall",
          "type": "bool"
        },
        {
          "internalType": "address",
          "name": "_token1",
          "type": "address"
        },
        {
          "internalType": "address",
          "name": "_token2",
          "type": "address"
        },
        {
          "internalType": "uint256",
          "name": "_amount0ToMint",
          "type": "uint256"
        },
        {
          "internalType": "uint256",
          "name": "_amount1ToMint",
          "type": "uint256"
        },
        {
          "internalType": "uint24",
          "name": "_poolFee",
          "type": "uint24"
        },
        {
          "internalType": "int24",
          "name": "_price",
          "type": "int24"
        },
        {
          "internalType": "int24",
          "name": "currentTick",
          "type": "int24"
        }
      ],
      "name": "putOrCall",
      "outputs": [],
      "stateMutability": "nonpayable",
      "type": "function"
    },
    {
      "inputs": [
        {
          "internalType": "uint256",
          "name": "tokenId",
          "type": "uint256"
        }
      ],
      "name": "retrieveNFT",
      "outputs": [],
      "stateMutability": "nonpayable",
      "type": "function"
    },
    {
      "inputs": [
        {
          "internalType": "address",
          "name": "token0",
          "type": "address"
        },
        {
          "internalType": "address",
          "name": "token1",
          "type": "address"
        },
        {
          "internalType": "uint24",
          "name": "fee",
          "type": "uint24"
        }
      ],
      "name": "takepoolInfo",
      "outputs": [
        {
          "internalType": "uint160",
          "name": "sqrtPriceX96",
          "type": "uint160"
        },
        {
          "internalType": "int24",
          "name": "currentTick",
          "type": "int24"
        },
        {
          "internalType": "address",
          "name": "",
          "type": "address"
        }
      ],
      "stateMutability": "nonpayable",
      "type": "function"
    }
  ],
  "bytecode": {
    "object": "0x60a060405234801561001057600080fd5b5060405161165d38038061165d83398101604081905261002f91610044565b60601b6001600160601b031916608052610072565b600060208284031215610055578081fd5b81516001600160a01b038116811461006b578182fd5b9392505050565b60805160601c6115a66100b7600039806101e7528061040552806104ff5280610601528061096852806109935280610a2f5280610ad85280610b1c52506115a66000f3fe608060405234801561001057600080fd5b50600436106100935760003560e01c806346ce96dd1161006657806346ce96dd1461010d5780638f2fd76b1461012e578063b02c43d014610136578063b44a272214610159578063fc1ca4b91461016e57610093565b806309218e91146100985780630a1d7c5f146100b6578063150b7a02146100cb57806319740e6c146100eb575b600080fd5b6100a0610181565b6040516100ad91906113b8565b60405180910390f35b6100c96100c43660046111c5565b610191565b005b6100de6100d9366004610fff565b6102a3565b6040516100ad919061138f565b6100fe6100f9366004610fb5565b6102c1565b6040516100ad939291906114e3565b61012061011b3660046111c5565b6103cc565b6040516100ad929190611512565b6100a06104a9565b6101496101443660046111c5565b6104bc565b6040516100ad949392919061135b565b6101616104fd565b6040516100ad91906113a4565b6100c961017c366004611099565b610521565b600054600160381b900460ff1681565b6000818152600160205260409020546001600160a01b031633146101d05760405162461bcd60e51b81526004016101c7906113cb565b60405180910390fd5b604051632142170760e11b81526001600160a01b037f000000000000000000000000000000000000000000000000000000000000000016906342842e0e9061022090309033908690600401611337565b600060405180830381600087803b15801561023a57600080fd5b505af115801561024e573d6000803e3d6000fd5b50505060009182525060016020819052604090912080546001600160a01b0319908116825591810180546fffffffffffffffffffffffffffffffff191690556002810180548316905560030180549091169055565b60006102af86856105fa565b50630a85bd0160e11b95945050505050565b60008080731f98431c8ad98523631ae4a59f267346ea31f984816102e68888886107c1565b90506102f28282610817565b600060086101000a8154816001600160a01b0302191690836001600160a01b03160217905550600060089054906101000a90046001600160a01b03166001600160a01b0316633850c7bd6040518163ffffffff1660e01b815260040160e06040518083038186803b15801561036657600080fd5b505afa15801561037a573d6000803e3d6000fd5b505050506040513d601f19601f8201168201806040525081019061039e919061112f565b5050600054949d939c505050680100000000000000009092046001600160a01b031698509650505050505050565b604080516080810182528281523060208201526001600160801b038183018190526060820152905163fc6f786560e01b815260009182917f00000000000000000000000000000000000000000000000000000000000000006001600160a01b03169063fc6f7865906104429084906004016113f2565b6040805180830381600087803b15801561045b57600080fd5b505af115801561046f573d6000803e3d6000fd5b505050506040513d601f19601f820116820180604052508101906104939190611218565b90935091506104a38484846108fb565b50915091565b6000546601000000000000900460ff1681565b600160208190526000918252604090912080549181015460028201546003909201546001600160a01b03938416936001600160801b03909216928216911684565b7f000000000000000000000000000000000000000000000000000000000000000081565b6000805462ffffff60e01b1916600160e01b62ffffff600286900b1602179055871561058f576000805460ff60381b196000198401600290810b62ffffff1662ffffff1990931692909217169182905561058691899189918991899189910b88610944565b505050506105f0565b60008054600180840160020b62ffffff1663010000000265ffffff000000199092169190911780835590919060ff60381b1916600160381b8302179055506105eb878787878787600060039054906101000a900460020b610944565b505050505b5050505050505050565b60008060007f00000000000000000000000000000000000000000000000000000000000000006001600160a01b03166399fbab88856040518263ffffffff1660e01b815260040161064b9190611509565b6101806040518083038186803b15801561066457600080fd5b505afa158015610678573d6000803e3d6000fd5b505050506040513d601f19601f8201168201806040525081019061069c919061123b565b5050505097505050509450945050506040518060800160405280866001600160a01b03168152602001826001600160801b03168152602001846001600160a01b03168152602001836001600160a01b03168152506001600086815260200190815260200160002060008201518160000160006101000a8154816001600160a01b0302191690836001600160a01b0316021790555060208201518160010160006101000a8154816001600160801b0302191690836001600160801b0316021790555060408201518160020160006101000a8154816001600160a01b0302191690836001600160a01b0316021790555060608201518160030160006101000a8154816001600160a01b0302191690836001600160a01b031602179055509050505050505050565b6107c9610f46565b826001600160a01b0316846001600160a01b031611156107e7579192915b50604080516060810182526001600160a01b03948516815292909316602083015262ffffff169181019190915290565b600081602001516001600160a01b031682600001516001600160a01b03161061083f57600080fd5b50805160208083015160409384015184516001600160a01b0394851681850152939091168385015262ffffff166060808401919091528351808403820181526080840185528051908301206001600160f81b031960a085015294901b6bffffffffffffffffffffffff191660a183015260b58201939093527fe34f199b19b2b4f47f68442619d555527d244f78a3297ea89325f843f87b8b5460d5808301919091528251808303909101815260f5909101909152805191012090565b6000838152600160205260409020805460028201546003909201546001600160a01b039182169282169116610931828487610b61565b61093c818486610b61565b505050505050565b6000806000806109568b33308c610caf565b6109628a33308b610caf565b61098d8b7f00000000000000000000000000000000000000000000000000000000000000008b610dff565b6109b88a7f00000000000000000000000000000000000000000000000000000000000000008a610dff565b60408051610160810182526001600160a01b03808e1682528c8116602083015262ffffff8a1682840152600289810b606084015288900b608083015260a082018c905260c082018b9052600060e0830181905261010083015230610120830152426101408301529151634418b22b60e11b815290917f00000000000000000000000000000000000000000000000000000000000000001690638831645690610a64908490600401611435565b608060405180830381600087803b158015610a7e57600080fd5b505af1158015610a92573d6000803e3d6000fd5b505050506040513d601f19601f82011682018060405250810190610ab691906111dd565b92975090955093509150610aca33866105fa565b89831015610b0e57610afe8c7f00000000000000000000000000000000000000000000000000000000000000006000610dff565b828a03610b0c8d3383610b61565b505b88821015610b5257610b428b7f00000000000000000000000000000000000000000000000000000000000000006000610dff565b818903610b508c3383610b61565b505b50975097509750979350505050565b604080516001600160a01b038481166024830152604480830185905283518084039091018152606490920183526020820180516001600160e01b031663a9059cbb60e01b1781529251825160009485949389169392918291908083835b60208310610bdd5780518252601f199092019160209182019101610bbe565b6001836020036101000a0380198251168184511680821785525050505050509050019150506000604051808303816000865af19150503d8060008114610c3f576040519150601f19603f3d011682016040523d82523d6000602084013e610c44565b606091505b5091509150818015610c72575080511580610c725750808060200190516020811015610c6f57600080fd5b50515b610ca8576040805162461bcd60e51b815260206004820152600260248201526114d560f21b604482015290519081900360640190fd5b5050505050565b604080516001600160a01b0385811660248301528481166044830152606480830185905283518084039091018152608490920183526020820180516001600160e01b03166323b872dd60e01b178152925182516000948594938a169392918291908083835b60208310610d335780518252601f199092019160209182019101610d14565b6001836020036101000a0380198251168184511680821785525050505050509050019150506000604051808303816000865af19150503d8060008114610d95576040519150601f19603f3d011682016040523d82523d6000602084013e610d9a565b606091505b5091509150818015610dc8575080511580610dc85750808060200190516020811015610dc557600080fd5b50515b61093c576040805162461bcd60e51b815260206004820152600360248201526229aa2360e91b604482015290519081900360640190fd5b604080516001600160a01b038481166024830152604480830185905283518084039091018152606490920183526020820180516001600160e01b031663095ea7b360e01b1781529251825160009485949389169392918291908083835b60208310610e7b5780518252601f199092019160209182019101610e5c565b6001836020036101000a0380198251168184511680821785525050505050509050019150506000604051808303816000865af19150503d8060008114610edd576040519150601f19603f3d011682016040523d82523d6000602084013e610ee2565b606091505b5091509150818015610f10575080511580610f105750808060200190516020811015610f0d57600080fd5b50515b610ca8576040805162461bcd60e51b8152602060048201526002602482015261534160f01b604482015290519081900360640190fd5b604080516060810182526000808252602082018190529181019190915290565b8051610f718161152d565b919050565b8051610f7181611550565b80516001600160801b0381168114610f7157600080fd5b805161ffff81168114610f7157600080fd5b8051610f718161155f565b600080600060608486031215610fc9578283fd5b8335610fd48161152d565b92506020840135610fe48161152d565b91506040840135610ff48161155f565b809150509250925092565b600080600080600060808688031215611016578081fd5b85356110218161152d565b945060208601356110318161152d565b935060408601359250606086013567ffffffffffffffff80821115611054578283fd5b818801915088601f830112611067578283fd5b813581811115611075578384fd5b896020828501011115611086578384fd5b9699959850939650602001949392505050565b600080600080600080600080610100898b0312156110b5578283fd5b88356110c081611542565b975060208901356110d08161152d565b965060408901356110e08161152d565b9550606089013594506080890135935060a08901356110fe8161155f565b925060c089013561110e81611550565b915060e089013561111e81611550565b809150509295985092959890939650565b600080600080600080600060e0888a031215611149578283fd5b87516111548161152d565b602089015190975061116581611550565b955061117360408901610f98565b945061118160608901610f98565b935061118f60808901610f98565b925060a088015160ff811681146111a4578283fd5b60c08901519092506111b581611542565b8091505092959891949750929550565b6000602082840312156111d6578081fd5b5035919050565b600080600080608085870312156111f2578384fd5b8451935061120260208601610f81565b6040860151606090960151949790965092505050565b6000806040838503121561122a578182fd5b505080516020909101519092909150565b6000806000806000806000806000806000806101808d8f03121561125d578586fd5b8c516bffffffffffffffffffffffff81168114611278578687fd5b9b5061128660208e01610f66565b9a5061129460408e01610f66565b99506112a260608e01610f66565b98506112b060808e01610faa565b97506112be60a08e01610f76565b96506112cc60c08e01610f76565b95506112da60e08e01610f81565b94506101008d015193506101208d015192506112f96101408e01610f81565b91506113086101608e01610f81565b90509295989b509295989b509295989b565b6001600160a01b03169052565b60020b9052565b62ffffff169052565b6001600160a01b039384168152919092166020820152604081019190915260600190565b6001600160a01b0394851681526001600160801b039390931660208401529083166040830152909116606082015260800190565b6001600160e01b031991909116815260200190565b6001600160a01b0391909116815260200190565b602081016113c583611520565b91905290565b6020808252600d908201526c2737ba103a34329037bbb732b960991b604082015260600190565b815181526020808301516001600160a01b0316908201526040808301516001600160801b0390811691830191909152606092830151169181019190915260800190565b60006101608201905061144982845161131a565b602083015161145b602084018261131a565b50604083015161146e604084018261132e565b5060608301516114816060840182611327565b5060808301516114946080840182611327565b5060a083015160a083015260c083015160c083015260e083015160e0830152610100808401518184015250610120808401516114d28285018261131a565b505061014092830151919092015290565b6001600160a01b03938416815260029290920b6020830152909116604082015260600190565b90815260200190565b918252602082015260400190565b6002811061152a57fe5b50565b6001600160a01b038116811461152a57600080fd5b801515811461152a57600080fd5b8060020b811461152a57600080fd5b62ffffff8116811461152a57600080fdfea26469706673582212207c7726cd90179a35cf569c05cc40e0670a910942e202c0525a0abd105a7abab964736f6c63430007060033",
    "linkReferences": {}
  },
  "methodIdentifiers": {
    "closeposition()": "8f2fd76b",
    "collectAllFees(uint256)": "46ce96dd",
    "deposits(uint256)": "b02c43d0",
    "nonfungiblePositionManager()": "b44a2722",
    "onERC721Received(address,address,uint256,bytes)": "150b7a02",
    "position()": "09218e91",
    "putOrCall(bool,address,address,uint256,uint256,uint24,int24,int24)": "fc1ca4b9",
    "retrieveNFT(uint256)": "0a1d7c5f",
    "takepoolInfo(address,address,uint24)": "19740e6c"
  },
  "id": 31
}