{
  "abi": [
    {
      "inputs": [
        {
          "internalType": "contract INonfungiblePositionManager",
          "name": "_nonfungiblePositionManager",
          "type": "address"
        }
      ],
      "stateMutability": "nonpayable",
      "type": "constructor"
    },
    {
      "inputs": [
        {
          "internalType": "uint256",
          "name": "tokenId",
          "type": "uint256"
        }
      ],
      "name": "collectAllFees",
      "outputs": [
        {
          "internalType": "uint256",
          "name": "amount0",
          "type": "uint256"
        },
        {
          "internalType": "uint256",
          "name": "amount1",
          "type": "uint256"
        }
      ],
      "stateMutability": "nonpayable",
      "type": "function"
    },
    {
      "inputs": [
        {
          "internalType": "uint256",
          "name": "",
          "type": "uint256"
        }
      ],
      "name": "deposits",
      "outputs": [
        {
          "internalType": "address",
          "name": "owner",
          "type": "address"
        },
        {
          "internalType": "uint128",
          "name": "liquidity",
          "type": "uint128"
        },
        {
          "internalType": "address",
          "name": "token0",
          "type": "address"
        },
        {
          "internalType": "address",
          "name": "token1",
          "type": "address"
        }
      ],
      "stateMutability": "view",
      "type": "function"
    },
    {
      "inputs": [],
      "name": "nonfungiblePositionManager",
      "outputs": [
        {
          "internalType": "contract INonfungiblePositionManager",
          "name": "",
          "type": "address"
        }
      ],
      "stateMutability": "view",
      "type": "function"
    },
    {
      "inputs": [
        {
          "internalType": "address",
          "name": "operator",
          "type": "address"
        },
        {
          "internalType": "address",
          "name": "",
          "type": "address"
        },
        {
          "internalType": "uint256",
          "name": "tokenId",
          "type": "uint256"
        },
        {
          "internalType": "bytes",
          "name": "",
          "type": "bytes"
        }
      ],
      "name": "onERC721Received",
      "outputs": [
        {
          "internalType": "bytes4",
          "name": "",
          "type": "bytes4"
        }
      ],
      "stateMutability": "nonpayable",
      "type": "function"
    },
    {
      "inputs": [],
      "name": "position",
      "outputs": [
        {
          "internalType": "enum LiquidityExamples.Position",
          "name": "",
          "type": "uint8"
        }
      ],
      "stateMutability": "view",
      "type": "function"
    },
    {
      "inputs": [
        {
          "internalType": "bool",
          "name": "_putOrCall",
          "type": "bool"
        },
        {
          "internalType": "address",
          "name": "_token1",
          "type": "address"
        },
        {
          "internalType": "address",
          "name": "_token2",
          "type": "address"
        },
        {
          "internalType": "uint256",
          "name": "_amount0ToMint",
          "type": "uint256"
        },
        {
          "internalType": "uint256",
          "name": "_amount1ToMint",
          "type": "uint256"
        },
        {
          "internalType": "uint24",
          "name": "_poolFee",
          "type": "uint24"
        },
        {
          "internalType": "int24",
          "name": "_price",
          "type": "int24"
        },
        {
          "internalType": "int24",
          "name": "currentTick",
          "type": "int24"
        }
      ],
      "name": "putOrCall",
      "outputs": [],
      "stateMutability": "nonpayable",
      "type": "function"
    },
    {
      "inputs": [
        {
          "internalType": "uint256",
          "name": "tokenId",
          "type": "uint256"
        }
      ],
      "name": "retrieveNFT",
      "outputs": [],
      "stateMutability": "nonpayable",
      "type": "function"
    },
    {
      "inputs": [
        {
          "internalType": "address",
          "name": "token0",
          "type": "address"
        },
        {
          "internalType": "address",
          "name": "token1",
          "type": "address"
        },
        {
          "internalType": "uint24",
          "name": "fee",
          "type": "uint24"
        }
      ],
      "name": "takepoolInfo",
      "outputs": [
        {
          "internalType": "uint160",
          "name": "sqrtPriceX96",
          "type": "uint160"
        },
        {
          "internalType": "int24",
          "name": "currentTick",
          "type": "int24"
        },
        {
          "internalType": "address",
          "name": "",
          "type": "address"
        }
      ],
      "stateMutability": "nonpayable",
      "type": "function"
    }
  ],
  "bytecode": {
    "object": "0x60a060405234801561001057600080fd5b5060405161163938038061163983398101604081905261002f91610044565b60601b6001600160601b031916608052610072565b600060208284031215610055578081fd5b81516001600160a01b038116811461006b578182fd5b9392505050565b60805160601c6115826100b7600039806101d752806103f452806104db52806105e6528061094d52806109785280610a145280610abd5280610b0152506115826000f3fe608060405234801561001057600080fd5b50600436106100885760003560e01c806346ce96dd1161005b57806346ce96dd14610102578063b02c43d014610123578063b44a272214610146578063fc1ca4b91461015b57610088565b806309218e911461008d5780630a1d7c5f146100ab578063150b7a02146100c057806319740e6c146100e0575b600080fd5b61009561016e565b6040516100a2919061139d565b60405180910390f35b6100be6100b93660046111aa565b610181565b005b6100d36100ce366004610fe4565b610293565b6040516100a29190611374565b6100f36100ee366004610f9a565b6102b1565b6040516100a2939291906114c9565b6101156101103660046111aa565b6103bb565b6040516100a29291906114f8565b6101366101313660046111aa565b610498565b6040516100a29493929190611340565b61014e6104d9565b6040516100a29190611389565b6100be61016936600461107e565b6104fd565b6000546601000000000000900460ff1681565b6000818152600160205260409020546001600160a01b031633146101c05760405162461bcd60e51b81526004016101b7906113b1565b60405180910390fd5b604051632142170760e11b81526001600160a01b037f000000000000000000000000000000000000000000000000000000000000000016906342842e0e906102109030903390869060040161131c565b600060405180830381600087803b15801561022a57600080fd5b505af115801561023e573d6000803e3d6000fd5b50505060009182525060016020819052604090912080546001600160a01b0319908116825591810180546fffffffffffffffffffffffffffffffff191690556002810180548316905560030180549091169055565b600061029f86856105df565b50630a85bd0160e11b95945050505050565b60008080731f98431c8ad98523631ae4a59f267346ea31f984816102d68888886107a6565b90506102e282826107fc565b600060076101000a8154816001600160a01b0302191690836001600160a01b03160217905550600060079054906101000a90046001600160a01b03166001600160a01b0316633850c7bd6040518163ffffffff1660e01b815260040160e06040518083038186803b15801561035657600080fd5b505afa15801561036a573d6000803e3d6000fd5b505050506040513d601f19601f8201168201806040525081019061038e9190611114565b5050600054949d939c5050506701000000000000009092046001600160a01b031698509650505050505050565b604080516080810182528281523060208201526001600160801b038183018190526060820152905163fc6f786560e01b815260009182917f00000000000000000000000000000000000000000000000000000000000000006001600160a01b03169063fc6f7865906104319084906004016113d8565b6040805180830381600087803b15801561044a57600080fd5b505af115801561045e573d6000803e3d6000fd5b505050506040513d601f19601f8201168201806040525081019061048291906111fd565b90935091506104928484846108e0565b50915091565b600160208190526000918252604090912080549181015460028201546003909201546001600160a01b03938416936001600160801b03909216928216911684565b7f000000000000000000000000000000000000000000000000000000000000000081565b6000805462ffffff60d81b1916600160d81b62ffffff600286900b1602179055871561056e576000805466ff000000000000196000198401600290810b62ffffff1662ffffff1990931692909217169182905561056591899189918991899189910b88610929565b505050506105d5565b60008054600180840160020b62ffffff1663010000000265ffffff000000199092169190911780835590919066ff000000000000191666010000000000008302179055506105d0878787878787600060039054906101000a900460020b610929565b505050505b5050505050505050565b60008060007f00000000000000000000000000000000000000000000000000000000000000006001600160a01b03166399fbab88856040518263ffffffff1660e01b815260040161063091906114ef565b6101806040518083038186803b15801561064957600080fd5b505afa15801561065d573d6000803e3d6000fd5b505050506040513d601f19601f820116820180604052508101906106819190611220565b5050505097505050509450945050506040518060800160405280866001600160a01b03168152602001826001600160801b03168152602001846001600160a01b03168152602001836001600160a01b03168152506001600086815260200190815260200160002060008201518160000160006101000a8154816001600160a01b0302191690836001600160a01b0316021790555060208201518160010160006101000a8154816001600160801b0302191690836001600160801b0316021790555060408201518160020160006101000a8154816001600160a01b0302191690836001600160a01b0316021790555060608201518160030160006101000a8154816001600160a01b0302191690836001600160a01b031602179055509050505050505050565b6107ae610f2b565b826001600160a01b0316846001600160a01b031611156107cc579192915b50604080516060810182526001600160a01b03948516815292909316602083015262ffffff169181019190915290565b600081602001516001600160a01b031682600001516001600160a01b03161061082457600080fd5b50805160208083015160409384015184516001600160a01b0394851681850152939091168385015262ffffff166060808401919091528351808403820181526080840185528051908301206001600160f81b031960a085015294901b6bffffffffffffffffffffffff191660a183015260b58201939093527fe34f199b19b2b4f47f68442619d555527d244f78a3297ea89325f843f87b8b5460d5808301919091528251808303909101815260f5909101909152805191012090565b6000838152600160205260409020805460028201546003909201546001600160a01b039182169282169116610916828487610b46565b610921818486610b46565b505050505050565b60008060008061093b8b33308c610c94565b6109478a33308b610c94565b6109728b7f00000000000000000000000000000000000000000000000000000000000000008b610de4565b61099d8a7f00000000000000000000000000000000000000000000000000000000000000008a610de4565b60408051610160810182526001600160a01b03808e1682528c8116602083015262ffffff8a1682840152600289810b606084015288900b608083015260a082018c905260c082018b9052600060e0830181905261010083015230610120830152426101408301529151634418b22b60e11b815290917f00000000000000000000000000000000000000000000000000000000000000001690638831645690610a4990849060040161141b565b608060405180830381600087803b158015610a6357600080fd5b505af1158015610a77573d6000803e3d6000fd5b505050506040513d601f19601f82011682018060405250810190610a9b91906111c2565b92975090955093509150610aaf33866105df565b89831015610af357610ae38c7f00000000000000000000000000000000000000000000000000000000000000006000610de4565b828a03610af18d3383610b46565b505b88821015610b3757610b278b7f00000000000000000000000000000000000000000000000000000000000000006000610de4565b818903610b358c3383610b46565b505b50975097509750979350505050565b604080516001600160a01b038481166024830152604480830185905283518084039091018152606490920183526020820180516001600160e01b031663a9059cbb60e01b1781529251825160009485949389169392918291908083835b60208310610bc25780518252601f199092019160209182019101610ba3565b6001836020036101000a0380198251168184511680821785525050505050509050019150506000604051808303816000865af19150503d8060008114610c24576040519150601f19603f3d011682016040523d82523d6000602084013e610c29565b606091505b5091509150818015610c57575080511580610c575750808060200190516020811015610c5457600080fd5b50515b610c8d576040805162461bcd60e51b815260206004820152600260248201526114d560f21b604482015290519081900360640190fd5b5050505050565b604080516001600160a01b0385811660248301528481166044830152606480830185905283518084039091018152608490920183526020820180516001600160e01b03166323b872dd60e01b178152925182516000948594938a169392918291908083835b60208310610d185780518252601f199092019160209182019101610cf9565b6001836020036101000a0380198251168184511680821785525050505050509050019150506000604051808303816000865af19150503d8060008114610d7a576040519150601f19603f3d011682016040523d82523d6000602084013e610d7f565b606091505b5091509150818015610dad575080511580610dad5750808060200190516020811015610daa57600080fd5b50515b610921576040805162461bcd60e51b815260206004820152600360248201526229aa2360e91b604482015290519081900360640190fd5b604080516001600160a01b038481166024830152604480830185905283518084039091018152606490920183526020820180516001600160e01b031663095ea7b360e01b1781529251825160009485949389169392918291908083835b60208310610e605780518252601f199092019160209182019101610e41565b6001836020036101000a0380198251168184511680821785525050505050509050019150506000604051808303816000865af19150503d8060008114610ec2576040519150601f19603f3d011682016040523d82523d6000602084013e610ec7565b606091505b5091509150818015610ef5575080511580610ef55750808060200190516020811015610ef257600080fd5b50515b610c8d576040805162461bcd60e51b8152602060048201526002602482015261534160f01b604482015290519081900360640190fd5b604080516060810182526000808252602082018190529181019190915290565b8051610f5681611506565b919050565b8051610f568161152c565b80516001600160801b0381168114610f5657600080fd5b805161ffff81168114610f5657600080fd5b8051610f568161153b565b600080600060608486031215610fae578283fd5b8335610fb981611506565b92506020840135610fc981611506565b91506040840135610fd98161153b565b809150509250925092565b600080600080600060808688031215610ffb578081fd5b853561100681611506565b9450602086013561101681611506565b935060408601359250606086013567ffffffffffffffff80821115611039578283fd5b818801915088601f83011261104c578283fd5b81358181111561105a578384fd5b89602082850101111561106b578384fd5b9699959850939650602001949392505050565b600080600080600080600080610100898b03121561109a578283fd5b88356110a58161151e565b975060208901356110b581611506565b965060408901356110c581611506565b9550606089013594506080890135935060a08901356110e38161153b565b925060c08901356110f38161152c565b915060e08901356111038161152c565b809150509295985092959890939650565b600080600080600080600060e0888a03121561112e578283fd5b875161113981611506565b602089015190975061114a8161152c565b955061115860408901610f7d565b945061116660608901610f7d565b935061117460808901610f7d565b925060a088015160ff81168114611189578283fd5b60c089015190925061119a8161151e565b8091505092959891949750929550565b6000602082840312156111bb578081fd5b5035919050565b600080600080608085870312156111d7578384fd5b845193506111e760208601610f66565b6040860151606090960151949790965092505050565b6000806040838503121561120f578182fd5b505080516020909101519092909150565b6000806000806000806000806000806000806101808d8f031215611242578586fd5b8c516bffffffffffffffffffffffff8116811461125d578687fd5b9b5061126b60208e01610f4b565b9a5061127960408e01610f4b565b995061128760608e01610f4b565b985061129560808e01610f8f565b97506112a360a08e01610f5b565b96506112b160c08e01610f5b565b95506112bf60e08e01610f66565b94506101008d015193506101208d015192506112de6101408e01610f66565b91506112ed6101608e01610f66565b90509295989b509295989b509295989b565b6001600160a01b03169052565b60020b9052565b62ffffff169052565b6001600160a01b039384168152919092166020820152604081019190915260600190565b6001600160a01b0394851681526001600160801b039390931660208401529083166040830152909116606082015260800190565b6001600160e01b031991909116815260200190565b6001600160a01b0391909116815260200190565b60208101600283106113ab57fe5b91905290565b6020808252600d908201526c2737ba103a34329037bbb732b960991b604082015260600190565b815181526020808301516001600160a01b0316908201526040808301516001600160801b0390811691830191909152606092830151169181019190915260800190565b60006101608201905061142f8284516112ff565b602083015161144160208401826112ff565b5060408301516114546040840182611313565b506060830151611467606084018261130c565b50608083015161147a608084018261130c565b5060a083015160a083015260c083015160c083015260e083015160e0830152610100808401518184015250610120808401516114b8828501826112ff565b505061014092830151919092015290565b6001600160a01b03938416815260029290920b6020830152909116604082015260600190565b90815260200190565b918252602082015260400190565b6001600160a01b038116811461151b57600080fd5b50565b801515811461151b57600080fd5b8060020b811461151b57600080fd5b62ffffff8116811461151b57600080fdfea264697066735822122021e321eb30b075ce9ae014d4b757162a14d8e1be8e3dfbca2c34e8f4577b872964736f6c63430007060033",
    "linkReferences": {}
  },
  "methodIdentifiers": {
    "collectAllFees(uint256)": "46ce96dd",
    "deposits(uint256)": "b02c43d0",
    "nonfungiblePositionManager()": "b44a2722",
    "onERC721Received(address,address,uint256,bytes)": "150b7a02",
    "position()": "09218e91",
    "putOrCall(bool,address,address,uint256,uint256,uint24,int24,int24)": "fc1ca4b9",
    "retrieveNFT(uint256)": "0a1d7c5f",
    "takepoolInfo(address,address,uint24)": "19740e6c"
  },
  "id": 31
}