{
  "abi": [
    {
      "inputs": [
        {
          "internalType": "contract INonfungiblePositionManager",
          "name": "_nonfungiblePositionManager",
          "type": "address"
        }
      ],
      "stateMutability": "nonpayable",
      "type": "constructor"
    },
    {
      "inputs": [],
      "name": "DAI",
      "outputs": [
        {
          "internalType": "address",
          "name": "",
          "type": "address"
        }
      ],
      "stateMutability": "view",
      "type": "function"
    },
    {
      "inputs": [],
      "name": "USDC",
      "outputs": [
        {
          "internalType": "address",
          "name": "",
          "type": "address"
        }
      ],
      "stateMutability": "view",
      "type": "function"
    },
    {
      "inputs": [
        {
          "internalType": "uint256",
          "name": "tokenId",
          "type": "uint256"
        }
      ],
      "name": "collectAllFees",
      "outputs": [
        {
          "internalType": "uint256",
          "name": "amount0",
          "type": "uint256"
        },
        {
          "internalType": "uint256",
          "name": "amount1",
          "type": "uint256"
        }
      ],
      "stateMutability": "nonpayable",
      "type": "function"
    },
    {
      "inputs": [
        {
          "internalType": "uint256",
          "name": "tokenId",
          "type": "uint256"
        }
      ],
      "name": "decreaseLiquidityInHalf",
      "outputs": [
        {
          "internalType": "uint256",
          "name": "amount0",
          "type": "uint256"
        },
        {
          "internalType": "uint256",
          "name": "amount1",
          "type": "uint256"
        }
      ],
      "stateMutability": "nonpayable",
      "type": "function"
    },
    {
      "inputs": [
        {
          "internalType": "uint256",
          "name": "",
          "type": "uint256"
        }
      ],
      "name": "deposits",
      "outputs": [
        {
          "internalType": "address",
          "name": "owner",
          "type": "address"
        },
        {
          "internalType": "uint128",
          "name": "liquidity",
          "type": "uint128"
        },
        {
          "internalType": "address",
          "name": "token0",
          "type": "address"
        },
        {
          "internalType": "address",
          "name": "token1",
          "type": "address"
        }
      ],
      "stateMutability": "view",
      "type": "function"
    },
    {
      "inputs": [
        {
          "internalType": "uint256",
          "name": "tokenId",
          "type": "uint256"
        },
        {
          "internalType": "uint256",
          "name": "amountAdd0",
          "type": "uint256"
        },
        {
          "internalType": "uint256",
          "name": "amountAdd1",
          "type": "uint256"
        }
      ],
      "name": "increaseLiquidityCurrentRange",
      "outputs": [
        {
          "internalType": "uint128",
          "name": "liquidity",
          "type": "uint128"
        },
        {
          "internalType": "uint256",
          "name": "amount0",
          "type": "uint256"
        },
        {
          "internalType": "uint256",
          "name": "amount1",
          "type": "uint256"
        }
      ],
      "stateMutability": "nonpayable",
      "type": "function"
    },
    {
      "inputs": [],
      "name": "mintNewPosition",
      "outputs": [
        {
          "internalType": "uint256",
          "name": "tokenId",
          "type": "uint256"
        },
        {
          "internalType": "uint128",
          "name": "liquidity",
          "type": "uint128"
        },
        {
          "internalType": "uint256",
          "name": "amount0",
          "type": "uint256"
        },
        {
          "internalType": "uint256",
          "name": "amount1",
          "type": "uint256"
        }
      ],
      "stateMutability": "nonpayable",
      "type": "function"
    },
    {
      "inputs": [],
      "name": "nonfungiblePositionManager",
      "outputs": [
        {
          "internalType": "contract INonfungiblePositionManager",
          "name": "",
          "type": "address"
        }
      ],
      "stateMutability": "view",
      "type": "function"
    },
    {
      "inputs": [
        {
          "internalType": "address",
          "name": "operator",
          "type": "address"
        },
        {
          "internalType": "address",
          "name": "",
          "type": "address"
        },
        {
          "internalType": "uint256",
          "name": "tokenId",
          "type": "uint256"
        },
        {
          "internalType": "bytes",
          "name": "",
          "type": "bytes"
        }
      ],
      "name": "onERC721Received",
      "outputs": [
        {
          "internalType": "bytes4",
          "name": "",
          "type": "bytes4"
        }
      ],
      "stateMutability": "nonpayable",
      "type": "function"
    },
    {
      "inputs": [],
      "name": "poolFee",
      "outputs": [
        {
          "internalType": "uint24",
          "name": "",
          "type": "uint24"
        }
      ],
      "stateMutability": "view",
      "type": "function"
    },
    {
      "inputs": [
        {
          "internalType": "uint256",
          "name": "tokenId",
          "type": "uint256"
        }
      ],
      "name": "retrieveNFT",
      "outputs": [],
      "stateMutability": "nonpayable",
      "type": "function"
    }
  ],
  "bytecode": {
    "object": "0x60a060405234801561001057600080fd5b5060405161168638038061168683398101604081905261002f91610044565b60601b6001600160601b031916608052610072565b600060208284031215610055578081fd5b81516001600160a01b038116811461006b578182fd5b9392505050565b60805160601c6115bb6100cb600039806102135280610350528061038f52806104435280610508528061057452806106005280610717528061075d52806107c652806108ef52806109fc5280610a3d52506115bb6000f3fe608060405234801561001057600080fd5b50600436106100a95760003560e01c8063617d6d6e11610071578063617d6d6e1461013a5780638187b4c51461015c57806389a302711461016f578063b02c43d014610184578063b44a2722146101a7578063e0bab4c4146101af576100a9565b8063089fe6aa146100ae5780630a1d7c5f146100cc578063150b7a02146100e1578063306d9c611461010157806346ce96dd14610119575b600080fd5b6100b66101b7565b6040516100c39190611522565b60405180910390f35b6100df6100da366004611144565b6101bd565b005b6100f46100ef366004611076565b6102cf565b6040516100c3919061134d565b6101096102ed565b6040516100c3949392919061153b565b61012c610127366004611144565b6105c7565b6040516100c392919061155f565b61014d6101483660046111ba565b6106a4565b6040516100c393929190611501565b61012c61016a366004611144565b61085d565b6101776109a2565b6040516100c391906112e1565b610197610192366004611144565b6109ba565b6040516100c39493929190611319565b6101776109fa565b610177610a1e565b610bb881565b6000818152602081905260409020546001600160a01b031633146101fc5760405162461bcd60e51b81526004016101f390611362565b60405180910390fd5b604051632142170760e11b81526001600160a01b037f000000000000000000000000000000000000000000000000000000000000000016906342842e0e9061024c903090339086906004016112f5565b600060405180830381600087803b15801561026657600080fd5b505af115801561027a573d6000803e3d6000fd5b50505060009182525060208190526040902080546001600160a01b031990811682556001820180546fffffffffffffffffffffffffffffffff1916905560028201805482169055600390910180549091169055565b60006102db8685610a36565b50630a85bd0160e11b95945050505050565b60008080806103e880610316736b175474e89094c44da98b954eedeac495271d0f333084610bfc565b61033673a0b86991c6218b36c1d19d4a2e9eb0ce3606eb48333084610bfc565b610375736b175474e89094c44da98b954eedeac495271d0f7f000000000000000000000000000000000000000000000000000000000000000084610d54565b6103b473a0b86991c6218b36c1d19d4a2e9eb0ce3606eb487f000000000000000000000000000000000000000000000000000000000000000083610d54565b6040805161016081018252736b175474e89094c44da98b954eedeac495271d0f815273a0b86991c6218b36c1d19d4a2e9eb0ce3606eb486020820152610bb881830152620d89e7196060820152620d89e8608082015260a0810184905260c08101839052600060e0820181905261010082015230610120820152426101408201529051634418b22b60e11b81527f00000000000000000000000000000000000000000000000000000000000000006001600160a01b031690638831645690610480908490600401611453565b608060405180830381600087803b15801561049a57600080fd5b505af11580156104ae573d6000803e3d6000fd5b505050506040513d601f19601f820116820180604052508101906104d2919061115c565b929950909750955093506104e63388610a36565b828510156105525761052e736b175474e89094c44da98b954eedeac495271d0f7f00000000000000000000000000000000000000000000000000000000000000006000610d54565b848303610550736b175474e89094c44da98b954eedeac495271d0f3383610ea2565b505b818410156105be5761059a73a0b86991c6218b36c1d19d4a2e9eb0ce3606eb487f00000000000000000000000000000000000000000000000000000000000000006000610d54565b8382036105bc73a0b86991c6218b36c1d19d4a2e9eb0ce3606eb483383610ea2565b505b50505090919293565b604080516080810182528281523060208201526001600160801b038183018190526060820152905163fc6f786560e01b815260009182917f00000000000000000000000000000000000000000000000000000000000000006001600160a01b03169063fc6f78659061063d908490600401611389565b6040805180830381600087803b15801561065657600080fd5b505af115801561066a573d6000803e3d6000fd5b505050506040513d601f19601f8201168201806040525081019061068e9190611197565b909350915061069e848484610fe9565b50915091565b600083815260208190526040812060020154819081906106cf906001600160a01b0316333088610bfc565b6000868152602081905260409020600301546106f6906001600160a01b0316333087610bfc565b60008681526020819052604090206002015461073c906001600160a01b03167f000000000000000000000000000000000000000000000000000000000000000087610d54565b600086815260208190526040902060030154610782906001600160a01b03167f000000000000000000000000000000000000000000000000000000000000000086610d54565b6040805160c0810182528781526020810187905280820186905260006060820181905260808201524260a0820152905163219f5d1760e01b81526001600160a01b037f0000000000000000000000000000000000000000000000000000000000000000169063219f5d17906107fb90849060040161140f565b606060405180830381600087803b15801561081557600080fd5b505af1158015610829573d6000803e3d6000fd5b505050506040513d601f19601f8201168201806040525081019061084d9190611110565b9199909850909650945050505050565b60008181526020819052604081205481906001600160a01b031633146108955760405162461bcd60e51b81526004016101f390611362565b6000838152602081905260408120600101546001600160801b03169060028204905060006040518060a00160405280878152602001836001600160801b0316815260200160008152602001600081526020014281525090507f00000000000000000000000000000000000000000000000000000000000000006001600160a01b0316630c49ccbe826040518263ffffffff1660e01b815260040161093991906113cc565b6040805180830381600087803b15801561095257600080fd5b505af1158015610966573d6000803e3d6000fd5b505050506040513d601f19601f8201168201806040525081019061098a9190611197565b909550935061099a868686610fe9565b505050915091565b73a0b86991c6218b36c1d19d4a2e9eb0ce3606eb4881565b60006020819052908152604090208054600182015460028301546003909301546001600160a01b03928316936001600160801b0390921692918216911684565b7f000000000000000000000000000000000000000000000000000000000000000081565b736b175474e89094c44da98b954eedeac495271d0f81565b60008060007f00000000000000000000000000000000000000000000000000000000000000006001600160a01b03166399fbab88856040518263ffffffff1660e01b8152600401610a879190611532565b6101806040518083038186803b158015610aa057600080fd5b505afa158015610ab4573d6000803e3d6000fd5b505050506040513d601f19601f82011682018060405250810190610ad891906111e5565b5050505097505050509450945050506040518060800160405280866001600160a01b03168152602001826001600160801b03168152602001846001600160a01b03168152602001836001600160a01b031681525060008086815260200190815260200160002060008201518160000160006101000a8154816001600160a01b0302191690836001600160a01b0316021790555060208201518160010160006101000a8154816001600160801b0302191690836001600160801b0316021790555060408201518160020160006101000a8154816001600160a01b0302191690836001600160a01b0316021790555060608201518160030160006101000a8154816001600160a01b0302191690836001600160a01b031602179055509050505050505050565b604080516001600160a01b0385811660248301528481166044830152606480830185905283518084039091018152608490920183526020820180516001600160e01b03166323b872dd60e01b178152925182516000948594938a169392918291908083835b60208310610c805780518252601f199092019160209182019101610c61565b6001836020036101000a0380198251168184511680821785525050505050509050019150506000604051808303816000865af19150503d8060008114610ce2576040519150601f19603f3d011682016040523d82523d6000602084013e610ce7565b606091505b5091509150818015610d15575080511580610d155750808060200190516020811015610d1257600080fd5b50515b610d4c576040805162461bcd60e51b815260206004820152600360248201526229aa2360e91b604482015290519081900360640190fd5b505050505050565b604080516001600160a01b038481166024830152604480830185905283518084039091018152606490920183526020820180516001600160e01b031663095ea7b360e01b1781529251825160009485949389169392918291908083835b60208310610dd05780518252601f199092019160209182019101610db1565b6001836020036101000a0380198251168184511680821785525050505050509050019150506000604051808303816000865af19150503d8060008114610e32576040519150601f19603f3d011682016040523d82523d6000602084013e610e37565b606091505b5091509150818015610e65575080511580610e655750808060200190516020811015610e6257600080fd5b50515b610e9b576040805162461bcd60e51b8152602060048201526002602482015261534160f01b604482015290519081900360640190fd5b5050505050565b604080516001600160a01b038481166024830152604480830185905283518084039091018152606490920183526020820180516001600160e01b031663a9059cbb60e01b1781529251825160009485949389169392918291908083835b60208310610f1e5780518252601f199092019160209182019101610eff565b6001836020036101000a0380198251168184511680821785525050505050509050019150506000604051808303816000865af19150503d8060008114610f80576040519150601f19603f3d011682016040523d82523d6000602084013e610f85565b606091505b5091509150818015610fb3575080511580610fb35750808060200190516020811015610fb057600080fd5b50515b610e9b576040805162461bcd60e51b815260206004820152600260248201526114d560f21b604482015290519081900360640190fd5b6000838152602081905260409020805460028201546003909201546001600160a01b03918216928216911661101f828487610ea2565b610d4c818486610ea2565b80516110358161156d565b919050565b8051600281900b811461103557600080fd5b80516001600160801b038116811461103557600080fd5b805162ffffff8116811461103557600080fd5b60008060008060006080868803121561108d578081fd5b85356110988161156d565b945060208601356110a88161156d565b935060408601359250606086013567ffffffffffffffff808211156110cb578283fd5b818801915088601f8301126110de578283fd5b8135818111156110ec578384fd5b8960208285010111156110fd578384fd5b9699959850939650602001949392505050565b600080600060608486031215611124578283fd5b61112d8461104c565b925060208401519150604084015190509250925092565b600060208284031215611155578081fd5b5035919050565b60008060008060808587031215611171578384fd5b845193506111816020860161104c565b6040860151606090960151949790965092505050565b600080604083850312156111a9578182fd5b505080516020909101519092909150565b6000806000606084860312156111ce578283fd5b505081359360208301359350604090920135919050565b6000806000806000806000806000806000806101808d8f031215611207578687fd5b8c516bffffffffffffffffffffffff81168114611222578788fd5b9b5061123060208e0161102a565b9a5061123e60408e0161102a565b995061124c60608e0161102a565b985061125a60808e01611063565b975061126860a08e0161103a565b965061127660c08e0161103a565b955061128460e08e0161104c565b94506101008d015193506101208d015192506112a36101408e0161104c565b91506112b26101608e0161104c565b90509295989b509295989b509295989b565b6001600160a01b03169052565b60020b9052565b62ffffff169052565b6001600160a01b0391909116815260200190565b6001600160a01b039384168152919092166020820152604081019190915260600190565b6001600160a01b0394851681526001600160801b039390931660208401529083166040830152909116606082015260800190565b6001600160e01b031991909116815260200190565b6020808252600d908201526c2737ba103a34329037bbb732b960991b604082015260600190565b815181526020808301516001600160a01b0316908201526040808301516001600160801b0390811691830191909152606092830151169181019190915260800190565b600060a082019050825182526001600160801b03602084015116602083015260408301516040830152606083015160608301526080830151608083015292915050565b600060c082019050825182526020830151602083015260408301516040830152606083015160608301526080830151608083015260a083015160a083015292915050565b6000610160820190506114678284516112c4565b602083015161147960208401826112c4565b50604083015161148c60408401826112d8565b50606083015161149f60608401826112d1565b5060808301516114b260808401826112d1565b5060a083015160a083015260c083015160c083015260e083015160e0830152610100808401518184015250610120808401516114f0828501826112c4565b505061014092830151919092015290565b6001600160801b039390931683526020830191909152604082015260600190565b62ffffff91909116815260200190565b90815260200190565b9384526001600160801b039290921660208401526040830152606082015260800190565b918252602082015260400190565b6001600160a01b038116811461158257600080fd5b5056fea264697066735822122009ab1bb8f0dfa8607a1f2ccab65e1c14993e04ace8992904b2104a210b84fbb264736f6c63430007060033",
    "linkReferences": {}
  },
  "methodIdentifiers": {
    "DAI()": "e0bab4c4",
    "USDC()": "89a30271",
    "collectAllFees(uint256)": "46ce96dd",
    "decreaseLiquidityInHalf(uint256)": "8187b4c5",
    "deposits(uint256)": "b02c43d0",
    "increaseLiquidityCurrentRange(uint256,uint256,uint256)": "617d6d6e",
    "mintNewPosition()": "306d9c61",
    "nonfungiblePositionManager()": "b44a2722",
    "onERC721Received(address,address,uint256,bytes)": "150b7a02",
    "poolFee()": "089fe6aa",
    "retrieveNFT(uint256)": "0a1d7c5f"
  },
  "id": 31
}