{
  "abi": [
    {
      "inputs": [
        {
          "internalType": "contract INonfungiblePositionManager",
          "name": "_nonfungiblePositionManager",
          "type": "address"
        }
      ],
      "stateMutability": "nonpayable",
      "type": "constructor"
    },
    {
      "inputs": [],
      "name": "DAI",
      "outputs": [
        {
          "internalType": "address",
          "name": "",
          "type": "address"
        }
      ],
      "stateMutability": "view",
      "type": "function"
    },
    {
      "inputs": [],
      "name": "USDC",
      "outputs": [
        {
          "internalType": "address",
          "name": "",
          "type": "address"
        }
      ],
      "stateMutability": "view",
      "type": "function"
    },
    {
      "inputs": [
        {
          "internalType": "uint256",
          "name": "tokenId",
          "type": "uint256"
        }
      ],
      "name": "collectAllFees",
      "outputs": [
        {
          "internalType": "uint256",
          "name": "amount0",
          "type": "uint256"
        },
        {
          "internalType": "uint256",
          "name": "amount1",
          "type": "uint256"
        }
      ],
      "stateMutability": "nonpayable",
      "type": "function"
    },
    {
      "inputs": [
        {
          "internalType": "uint256",
          "name": "tokenId",
          "type": "uint256"
        }
      ],
      "name": "decreaseLiquidityInHalf",
      "outputs": [
        {
          "internalType": "uint256",
          "name": "amount0",
          "type": "uint256"
        },
        {
          "internalType": "uint256",
          "name": "amount1",
          "type": "uint256"
        }
      ],
      "stateMutability": "nonpayable",
      "type": "function"
    },
    {
      "inputs": [
        {
          "internalType": "uint256",
          "name": "",
          "type": "uint256"
        }
      ],
      "name": "deposits",
      "outputs": [
        {
          "internalType": "address",
          "name": "owner",
          "type": "address"
        },
        {
          "internalType": "uint128",
          "name": "liquidity",
          "type": "uint128"
        },
        {
          "internalType": "address",
          "name": "token0",
          "type": "address"
        },
        {
          "internalType": "address",
          "name": "token1",
          "type": "address"
        }
      ],
      "stateMutability": "view",
      "type": "function"
    },
    {
      "inputs": [
        {
          "internalType": "uint256",
          "name": "tokenId",
          "type": "uint256"
        },
        {
          "internalType": "uint256",
          "name": "amountAdd0",
          "type": "uint256"
        },
        {
          "internalType": "uint256",
          "name": "amountAdd1",
          "type": "uint256"
        }
      ],
      "name": "increaseLiquidityCurrentRange",
      "outputs": [
        {
          "internalType": "uint128",
          "name": "liquidity",
          "type": "uint128"
        },
        {
          "internalType": "uint256",
          "name": "amount0",
          "type": "uint256"
        },
        {
          "internalType": "uint256",
          "name": "amount1",
          "type": "uint256"
        }
      ],
      "stateMutability": "nonpayable",
      "type": "function"
    },
    {
      "inputs": [
        {
          "internalType": "address",
          "name": "_token1",
          "type": "address"
        },
        {
          "internalType": "address",
          "name": "_token2",
          "type": "address"
        },
        {
          "internalType": "uint256",
          "name": "_amount0ToMint",
          "type": "uint256"
        },
        {
          "internalType": "uint256",
          "name": "_amount1ToMint",
          "type": "uint256"
        },
        {
          "internalType": "int24",
          "name": "_lowerTick",
          "type": "int24"
        },
        {
          "internalType": "int24",
          "name": "_upperTick",
          "type": "int24"
        }
      ],
      "name": "mintNewPosition",
      "outputs": [
        {
          "internalType": "uint256",
          "name": "tokenId",
          "type": "uint256"
        },
        {
          "internalType": "uint128",
          "name": "liquidity",
          "type": "uint128"
        },
        {
          "internalType": "uint256",
          "name": "amount0",
          "type": "uint256"
        },
        {
          "internalType": "uint256",
          "name": "amount1",
          "type": "uint256"
        }
      ],
      "stateMutability": "nonpayable",
      "type": "function"
    },
    {
      "inputs": [],
      "name": "nonfungiblePositionManager",
      "outputs": [
        {
          "internalType": "contract INonfungiblePositionManager",
          "name": "",
          "type": "address"
        }
      ],
      "stateMutability": "view",
      "type": "function"
    },
    {
      "inputs": [
        {
          "internalType": "address",
          "name": "operator",
          "type": "address"
        },
        {
          "internalType": "address",
          "name": "",
          "type": "address"
        },
        {
          "internalType": "uint256",
          "name": "tokenId",
          "type": "uint256"
        },
        {
          "internalType": "bytes",
          "name": "",
          "type": "bytes"
        }
      ],
      "name": "onERC721Received",
      "outputs": [
        {
          "internalType": "bytes4",
          "name": "",
          "type": "bytes4"
        }
      ],
      "stateMutability": "nonpayable",
      "type": "function"
    },
    {
      "inputs": [],
      "name": "poolFee",
      "outputs": [
        {
          "internalType": "uint24",
          "name": "",
          "type": "uint24"
        }
      ],
      "stateMutability": "view",
      "type": "function"
    },
    {
      "inputs": [
        {
          "internalType": "uint256",
          "name": "tokenId",
          "type": "uint256"
        }
      ],
      "name": "retrieveNFT",
      "outputs": [],
      "stateMutability": "nonpayable",
      "type": "function"
    }
  ],
  "bytecode": {
    "object": "0x60a060405234801561001057600080fd5b5060405161164738038061164783398101604081905261002f91610044565b60601b6001600160601b031916608052610072565b600060208284031215610055578081fd5b81516001600160a01b038116811461006b578182fd5b9392505050565b60805160601c61157c6100cb6000398061021e52806103315280610448528061048e52806104f75280610620528061072d528061078b52806107b6528061084f52806108f8528061093c5280610987525061157c6000f3fe608060405234801561001057600080fd5b50600436106100a95760003560e01c80638187b4c5116100715780638187b4c51461014457806389a3027114610157578063b02c43d01461016c578063b44a27221461018f578063e0bab4c414610197578063ec4c38bc1461019f576100a9565b8063089fe6aa146100ae5780630a1d7c5f146100cc578063150b7a02146100e157806346ce96dd14610101578063617d6d6e14610122575b600080fd5b6100b66101c2565b6040516100c391906114d4565b60405180910390f35b6100df6100da3660046110f6565b6101c8565b005b6100f46100ef366004610fb9565b6102da565b6040516100c391906112ff565b61011461010f3660046110f6565b6102f8565b6040516100c3929190611511565b61013561013036600461116c565b6103d5565b6040516100c3939291906114b3565b6101146101523660046110f6565b61058e565b61015f6106d3565b6040516100c39190611293565b61017f61017a3660046110f6565b6106eb565b6040516100c394939291906112cb565b61015f61072b565b61015f61074f565b6101b26101ad366004611053565b610767565b6040516100c394939291906114ed565b610bb881565b6000818152602081905260409020546001600160a01b031633146102075760405162461bcd60e51b81526004016101fe90611314565b60405180910390fd5b604051632142170760e11b81526001600160a01b037f000000000000000000000000000000000000000000000000000000000000000016906342842e0e90610257903090339086906004016112a7565b600060405180830381600087803b15801561027157600080fd5b505af1158015610285573d6000803e3d6000fd5b50505060009182525060208190526040902080546001600160a01b031990811682556001820180546fffffffffffffffffffffffffffffffff1916905560028201805482169055600390910180549091169055565b60006102e68685610980565b50630a85bd0160e11b95945050505050565b604080516080810182528281523060208201526001600160801b038183018190526060820152905163fc6f786560e01b815260009182917f00000000000000000000000000000000000000000000000000000000000000006001600160a01b03169063fc6f78659061036e90849060040161133b565b6040805180830381600087803b15801561038757600080fd5b505af115801561039b573d6000803e3d6000fd5b505050506040513d601f19601f820116820180604052508101906103bf9190611149565b90935091506103cf848484610b46565b50915091565b60008381526020819052604081206002015481908190610400906001600160a01b0316333088610b8f565b600086815260208190526040902060030154610427906001600160a01b0316333087610b8f565b60008681526020819052604090206002015461046d906001600160a01b03167f000000000000000000000000000000000000000000000000000000000000000087610cdf565b6000868152602081905260409020600301546104b3906001600160a01b03167f000000000000000000000000000000000000000000000000000000000000000086610cdf565b6040805160c0810182528781526020810187905280820186905260006060820181905260808201524260a0820152905163219f5d1760e01b81526001600160a01b037f0000000000000000000000000000000000000000000000000000000000000000169063219f5d179061052c9084906004016113c1565b606060405180830381600087803b15801561054657600080fd5b505af115801561055a573d6000803e3d6000fd5b505050506040513d601f19601f8201168201806040525081019061057e91906110c2565b9199909850909650945050505050565b60008181526020819052604081205481906001600160a01b031633146105c65760405162461bcd60e51b81526004016101fe90611314565b6000838152602081905260408120600101546001600160801b03169060028204905060006040518060a00160405280878152602001836001600160801b0316815260200160008152602001600081526020014281525090507f00000000000000000000000000000000000000000000000000000000000000006001600160a01b0316630c49ccbe826040518263ffffffff1660e01b815260040161066a919061137e565b6040805180830381600087803b15801561068357600080fd5b505af1158015610697573d6000803e3d6000fd5b505050506040513d601f19601f820116820180604052508101906106bb9190611149565b90955093506106cb868686610b46565b505050915091565b73a0b86991c6218b36c1d19d4a2e9eb0ce3606eb4881565b60006020819052908152604090208054600182015460028301546003909301546001600160a01b03928316936001600160801b0390921692918216911684565b7f000000000000000000000000000000000000000000000000000000000000000081565b736b175474e89094c44da98b954eedeac495271d0f81565b6000806000806107798a33308b610b8f565b6107858933308a610b8f565b6107b08a7f00000000000000000000000000000000000000000000000000000000000000008a610cdf565b6107db897f000000000000000000000000000000000000000000000000000000000000000089610cdf565b60408051610160810182526001600160a01b03808d1682528b81166020830152610bb882840152600289810b606084015288900b608083015260a082018b905260c082018a9052600060e0830181905261010083015230610120830152426101408301529151634418b22b60e11b815290917f00000000000000000000000000000000000000000000000000000000000000001690638831645690610884908490600401611405565b608060405180830381600087803b15801561089e57600080fd5b505af11580156108b2573d6000803e3d6000fd5b505050506040513d601f19601f820116820180604052508101906108d6919061110e565b929750909550935091506108ea3386610980565b8883101561092e5761091e8b7f00000000000000000000000000000000000000000000000000000000000000006000610cdf565b82890361092c8c3383610e2d565b505b87821015610972576109628a7f00000000000000000000000000000000000000000000000000000000000000006000610cdf565b8188036109708b3383610e2d565b505b509650965096509692505050565b60008060007f00000000000000000000000000000000000000000000000000000000000000006001600160a01b03166399fbab88856040518263ffffffff1660e01b81526004016109d191906114e4565b6101806040518083038186803b1580156109ea57600080fd5b505afa1580156109fe573d6000803e3d6000fd5b505050506040513d601f19601f82011682018060405250810190610a229190611197565b5050505097505050509450945050506040518060800160405280866001600160a01b03168152602001826001600160801b03168152602001846001600160a01b03168152602001836001600160a01b031681525060008086815260200190815260200160002060008201518160000160006101000a8154816001600160a01b0302191690836001600160a01b0316021790555060208201518160010160006101000a8154816001600160801b0302191690836001600160801b0316021790555060408201518160020160006101000a8154816001600160a01b0302191690836001600160a01b0316021790555060608201518160030160006101000a8154816001600160a01b0302191690836001600160a01b031602179055509050505050505050565b6000838152602081905260409020805460028201546003909201546001600160a01b039182169282169116610b7c828487610e2d565b610b87818486610e2d565b505050505050565b604080516001600160a01b0385811660248301528481166044830152606480830185905283518084039091018152608490920183526020820180516001600160e01b03166323b872dd60e01b178152925182516000948594938a169392918291908083835b60208310610c135780518252601f199092019160209182019101610bf4565b6001836020036101000a0380198251168184511680821785525050505050509050019150506000604051808303816000865af19150503d8060008114610c75576040519150601f19603f3d011682016040523d82523d6000602084013e610c7a565b606091505b5091509150818015610ca8575080511580610ca85750808060200190516020811015610ca557600080fd5b50515b610b87576040805162461bcd60e51b815260206004820152600360248201526229aa2360e91b604482015290519081900360640190fd5b604080516001600160a01b038481166024830152604480830185905283518084039091018152606490920183526020820180516001600160e01b031663095ea7b360e01b1781529251825160009485949389169392918291908083835b60208310610d5b5780518252601f199092019160209182019101610d3c565b6001836020036101000a0380198251168184511680821785525050505050509050019150506000604051808303816000865af19150503d8060008114610dbd576040519150601f19603f3d011682016040523d82523d6000602084013e610dc2565b606091505b5091509150818015610df0575080511580610df05750808060200190516020811015610ded57600080fd5b50515b610e26576040805162461bcd60e51b8152602060048201526002602482015261534160f01b604482015290519081900360640190fd5b5050505050565b604080516001600160a01b038481166024830152604480830185905283518084039091018152606490920183526020820180516001600160e01b031663a9059cbb60e01b1781529251825160009485949389169392918291908083835b60208310610ea95780518252601f199092019160209182019101610e8a565b6001836020036101000a0380198251168184511680821785525050505050509050019150506000604051808303816000865af19150503d8060008114610f0b576040519150601f19603f3d011682016040523d82523d6000602084013e610f10565b606091505b5091509150818015610f3e575080511580610f3e5750808060200190516020811015610f3b57600080fd5b50515b610e26576040805162461bcd60e51b815260206004820152600260248201526114d560f21b604482015290519081900360640190fd5b8051610f7f8161151f565b919050565b8051610f7f81611537565b80516001600160801b0381168114610f7f57600080fd5b805162ffffff81168114610f7f57600080fd5b600080600080600060808688031215610fd0578081fd5b8535610fdb8161151f565b94506020860135610feb8161151f565b935060408601359250606086013567ffffffffffffffff8082111561100e578283fd5b818801915088601f830112611021578283fd5b81358181111561102f578384fd5b896020828501011115611040578384fd5b9699959850939650602001949392505050565b60008060008060008060c0878903121561106b578081fd5b86356110768161151f565b955060208701356110868161151f565b9450604087013593506060870135925060808701356110a481611537565b915060a08701356110b481611537565b809150509295509295509295565b6000806000606084860312156110d6578283fd5b6110df84610f8f565b925060208401519150604084015190509250925092565b600060208284031215611107578081fd5b5035919050565b60008060008060808587031215611123578384fd5b8451935061113360208601610f8f565b6040860151606090960151949790965092505050565b6000806040838503121561115b578182fd5b505080516020909101519092909150565b600080600060608486031215611180578283fd5b505081359360208301359350604090920135919050565b6000806000806000806000806000806000806101808d8f0312156111b9578586fd5b8c516bffffffffffffffffffffffff811681146111d4578687fd5b9b506111e260208e01610f74565b9a506111f060408e01610f74565b99506111fe60608e01610f74565b985061120c60808e01610fa6565b975061121a60a08e01610f84565b965061122860c08e01610f84565b955061123660e08e01610f8f565b94506101008d015193506101208d015192506112556101408e01610f8f565b91506112646101608e01610f8f565b90509295989b509295989b509295989b565b6001600160a01b03169052565b60020b9052565b62ffffff169052565b6001600160a01b0391909116815260200190565b6001600160a01b039384168152919092166020820152604081019190915260600190565b6001600160a01b0394851681526001600160801b039390931660208401529083166040830152909116606082015260800190565b6001600160e01b031991909116815260200190565b6020808252600d908201526c2737ba103a34329037bbb732b960991b604082015260600190565b815181526020808301516001600160a01b0316908201526040808301516001600160801b0390811691830191909152606092830151169181019190915260800190565b600060a082019050825182526001600160801b03602084015116602083015260408301516040830152606083015160608301526080830151608083015292915050565b600060c082019050825182526020830151602083015260408301516040830152606083015160608301526080830151608083015260a083015160a083015292915050565b600061016082019050611419828451611276565b602083015161142b6020840182611276565b50604083015161143e604084018261128a565b5060608301516114516060840182611283565b5060808301516114646080840182611283565b5060a083015160a083015260c083015160c083015260e083015160e0830152610100808401518184015250610120808401516114a282850182611276565b505061014092830151919092015290565b6001600160801b039390931683526020830191909152604082015260600190565b62ffffff91909116815260200190565b90815260200190565b9384526001600160801b039290921660208401526040830152606082015260800190565b918252602082015260400190565b6001600160a01b038116811461153457600080fd5b50565b8060020b811461153457600080fdfea26469706673582212202381a588b4bf010e959c0c8ec336ef606fed7dc565a23be47d7e6504c18dcfb464736f6c63430007060033",
    "linkReferences": {}
  },
  "methodIdentifiers": {
    "DAI()": "e0bab4c4",
    "USDC()": "89a30271",
    "collectAllFees(uint256)": "46ce96dd",
    "decreaseLiquidityInHalf(uint256)": "8187b4c5",
    "deposits(uint256)": "b02c43d0",
    "increaseLiquidityCurrentRange(uint256,uint256,uint256)": "617d6d6e",
    "mintNewPosition(address,address,uint256,uint256,int24,int24)": "ec4c38bc",
    "nonfungiblePositionManager()": "b44a2722",
    "onERC721Received(address,address,uint256,bytes)": "150b7a02",
    "poolFee()": "089fe6aa",
    "retrieveNFT(uint256)": "0a1d7c5f"
  },
  "id": 51
}